:1000000065C0000075C0000073C0000071C0000032
:100010006FC000006DC000006BC0000069C0000030
:1000200067C0000065C0000063C0000061C0000040
:100030005FC000005DC000005BC0000081C5000023
:1000400057C0000055C0000053C0000051C0000060
:100050004FC500004DC000004BC0000049C000006B
:1000600047C0000045C0000043C0000041C0000080
:100070003FC000008DC500003BC0000039C000003B
:1000800037C0000035C0000033C0000031C00000A0
:100090002FC000002DC000002BC0000029C00000B0
:1000A00027C0000025C0000023C0000021C00000C0
:1000B0001FC000001DC000001BC0000019C00000D0
:1000C00017C0000015C0000013C0000011241FBE9F
:1000D000CFEFD1E2DEBFCDBF00E00CBF22E0A0E059
:1000E000B2E001C01D92A731B207E1F7C5D277C5D2
:1000F00087CF1092160210921502109214020895E2
:1001000081B1817E81B9759A6D98269A2E9A87B1B0
:100110008F6087B988B1807F88B90895E1EBF0E0FE
:10012000808187608083E0E7F0E080818160808368
:100130000895659951C08FB7F89410920B021092F0
:100140000A0290911402992359F02E9A41984098EE
:1001500043984298109216021092150210921402BF
:100160008FBF039B6DC0049B6EC06AC081E080930B
:100170001602109213021092120210C0049974C059
:1001800084C082E080931602109211021092100235
:1001900005C0049B7DC087C0049988C0019B91C0A5
:1001A000029B92C08EC081E08093150210920F02D4
:1001B00010920E02089502999BC097C082E080932E
:1001C000150210920D0210920C020895029BA1C01C
:1001D000ABC00299ACC00895659B2DC081E08093AF
:1001E000140280910A0290910B02019690930B02E7
:1001F00080930A0280910A0290910B02CC9708F436
:10020000A0C083E08093160280931502109213021F
:1002100010921202109211021092100210920F020C
:1002200010920E0210920D0210920C0210920B020C
:1002300010920A0208951092160210921502089563
:10024000039B9CCF22C080911202909113020196D1
:1002500090931302809312028091120290911302E4
:100260004E9708F083CF9ACF80911002909111029F
:100270000196909311028093100280911002909148
:1002800011024E9708F07DCF89CF039B82CF0BC020
:100290001092130210921202109211021092100288
:1002A000109216027BCF039977CF78CF109213026A
:1002B0001092120210921102109210021092160265
:1002C0006DCF019B78CF11C080910E0290910F02EB
:1002D000019690930F0280930E0280910E029091EE
:1002E0000F024E9708F05FCF0895019B6FCF1CC09F
:1002F00080910C0290910D02019690930D028093D3
:100300000C0280910C0290910D024E9708F056CF8E
:10031000089510920F0210920E0210920D02109288
:100320000C02109215020895019953CF089510926E
:100330000F0210920E0210920D0210920C021092F7
:1003400015020895813019F0823021F006C08091A5
:100350001602089580911502089580E00895623094
:1003600049F16C3009F449C0613009F05FC0413097
:1003700071F4419840982FEF3FE786E121503040DB
:100380008040E1F700C000004198409A0895423053
:1003900071F4419840989FEF2FE736E1915020404B
:1003A0003040E1F700C000004098419A089541981C
:1003B00040980895413071F4439842988FEF9FE739
:1003C00026E1815090402040E1F700C000004398B2
:1003D000429A0895423071F4439842983FEF8FE774
:1003E00096E1315080409040E1F700C00000429813
:1003F000439A08954398429808958FB7F8944330EC
:1004000099F42E9A41984098439842982FEF3FEFE5
:100410009CE2215030409040E1F700C000002E984F
:100420004198409A4398429A8FBF089541984098C6
:100430004398429808951092090210920802089574
:100440009D9AA5986F9A779884B1876084B985B191
:10045000887F85B9089580910902813021F082302A
:1004600009F43FC073C08091060290910702009783
:1004700089F48CE387BD87B5869588BD9D9A779A68
:100480008091060290910702019690930702809353
:10049000060208959C01215031092B32314030F47D
:1004A0000196909307028093060208959C012C52B6
:1004B0003140243A364068F49D98A5987798809109
:1004C000060290910702019690930702809306021C
:1004D0000895803D9740D8F11092070210920602CD
:1004E00008958091080281110BC08EE187BD87B508
:1004F000869588BD81E0809308029D9A779A089539
:10050000813071F487B5815087BD87B5869588BDE8
:100510008091B3008B30D8F482E080930802089574
:10052000823089F487B58F5F87BD87B5869588BD92
:1005300087B58C3308F0779887B5843640F083E030
:1005400080930802089510920802089517BC089538
:100550006093090284B5836284BD85B58C6085BDD6
:10056000E1E8F0E0808181608083EFE6F0E0808167
:1005700081608083089584B58C7D84BD85B5837F3B
:1005800085BDE1E8F0E080818E7F8083EFE6F0E0DA
:1005900080818E7F808317BC18BCA59877981092B5
:1005A000090210920702109206020895613011F4B8
:1005B000289A089528980895613011F4299A089589
:1005C00029980895613011F42A9A08952A98089577
:1005D00010920102089581B1806E81B982B18F714C
:1005E00082B9089583E680937C0010927B008FECA3
:1005F00080937A00089580917C0080FF11C08091E3
:100600007900809301028091010290E090930502AD
:1006100080930402ECE7F0E080818E7F808314C039
:1006200080917C0080FD10C0809179008093000251
:100630008091000290E09093030280930202ECE725
:10064000F0E0808181608083EAE7F0E0808180646F
:1006500080830895613011F4159A089515980895CE
:10066000613011F4179A089517980895613011F4C4
:10067000169A089516980895CF93DF93CDB7DEB7F5
:1006800028970FB6F894DEBF0FBECDBF2FEF3FEF18
:100690008CE2215030408040E1F700C00000CE01E4
:1006A000019696DFCE010796C6DECE01019693DF56
:1006B000CE01019697DFCE010796C2DE78949FEFB8
:1006C000EFEFFCE29150E040F040E1F700C00000A5
:1006D0008091010280910002843508F450C061E0ED
:1006E000CE010196B7DF2FEF3FEF8CE22150304073
:1006F0008040E1F700C0000061E0CE010196B0DF6C
:100700009FEFEFE7F6E19150E040F040E1F700C0E5
:10071000000061E0CE01079649DF2FEF3FE786E159
:10072000215030408040E1F700C0000060E0CE0181
:1007300007963CDF61E0CE01079644DF9FEFEFE7CD
:10074000F6E19150E040F040E1F700C0000060E0C9
:10075000CE01079637DF61E0CE0107962DDF2FEF40
:100760003FE786E1215030408040E1F700C00000C3
:1007700060E0CE01079620DF92E0988729C0EFEF76
:10078000FFEF2CE2E150F0402040E1F700C0000014
:1007900061E0CE01019664DF3FEF8FE796E13150D3
:1007A00080409040E1F700C0000061E0CE01079674
:1007B00003DFEFEFFFE726E1E150F0402040E1F7F3
:1007C00000C0000060E0CE010796F6DE31E0388719
:1007D000F894CE0106968DDCCE01069691DCCE0112
:1007E00006969CDC1C821D8278948FEF9FEFECE2D2
:1007F00081509040E040E1F700C00000C12CD12CB6
:1008000076012E01F4E04F0E511C842C752C912C96
:10081000212C04C0C22CD12CE12CF12C28852130B4
:1008200021F0223009F44BC0F9CF61E0CE010796E8
:10083000C3DE082D172D692C5801F8013080639410
:10084000862D80DD3816A9F1F3E03F1203C0CE01FA
:10085000079691DE862D76DDF5018083813031F0BB
:1008600088F0823049F0833099F01EC041E0662D57
:10087000CE01069674DD1DC042E0662DCE010696BF
:100880006EDD17C0492D662DCE01069668DD11C0BC
:1008900004110FC043E06CE0CE01069660DD62E01B
:1008A000CE01079655DE05C0492D662DCE01069670
:1008B00056DD0F5F1F4FF2E06F12BECFAFCF8091BA
:1008C000010297E4980F913408F076C061E0CE0100
:1008D000079672DE692DCE01079674DE082D172D5E
:1008E000692C5801F80130806394862D2BDD381671
:1008F000A9F1F3E03F1203C0CE0107963CDE862D3E
:1009000021DDF5018083813031F088F0823049F0BB
:10091000833099F01EC041E0662DCE0106961FDDA2
:100920001DC042E0662DCE01069619DD17C0492D87
:10093000662DCE01069613DD11C004110FC043E0F1
:100940006CE0CE0106960BDD62E0CE01079600DE7C
:1009500005C0492D662DCE01069601DD0F5F1F4FA4
:10096000F2E06F12BECF109100028DE2810F87324C
:1009700058F4692DCE01079619DE692DCE01019636
:1009800075DE193C80F00BC0193C48F461E0CE01E3
:1009900007960CDE61E0CE01019668DE04C0692D89
:1009A000CE01079603DE80910902813009F036CF2F
:1009B000CE010796E0DD32CF893B08F02FCF692DBD
:1009C000CE010796F9DD61E0CE010796FBDD692DCA
:1009D000CE0101964BDE082D172D692C5801F80128
:1009E00030806394862DAEDC381671F1F3E03F124F
:1009F00003C0CE010796BFDD862DA4DCF501808300
:100A0000823029F0833079F0811119C006C042E0AC
:100A1000662DCE010696A3DC17C0492D662DCE01AA
:100A200006969DDC11C004110FC043E06CE0CE01BE
:100A3000069695DC62E0CE0107968ADD05C0492D59
:100A4000662DCE0106968BDC0F5F1F4FF2E06F1212
:100A5000C5CF10910002193C58F461E0CE01079611
:100A6000A5DD809109028150823008F03CC00BC0A6
:100A7000692DCE0107969ADD80910902813019F423
:100A8000CE01079678DD193B08F0C4CE2FEFC21ACD
:100A9000D20AE20AF20A31EAC31636E8D30631E096
:100AA000E306F10408F4BACE692DCE010196D8DD33
:100AB000692DCE010196CEDD692DCE01079682DD2E
:100AC000692DCE01079672DDCE01079654DD8FEFBA
:100AD0009FEFE6E7F1E081509040E040F040D9F729
:100AE00000C000009BCE61E0CE01079631DDCBCF88
:100AF00078941F920F920FB60F9211240BB60F929B
:100B00002F933F934F935F936F937F938F939F9315
:100B1000AF93BF93EF93FF939EDCFF91EF91BF9153
:100B2000AF919F918F917F916F915F914F913F9185
:100B30002F910F900BBE0F900FBE0F901F90189526
:100B400078941F920F920FB60F9211240BB60F924A
:100B50002F933F934F935F936F937F938F939F93C5
:100B6000AF93BF93EF93FF93E4DAFF91EF91BF91BF
:100B7000AF919F918F917F916F915F914F913F9135
:100B80002F910F900BBE0F900FBE0F901F901895D6
:100B90001F920F920FB60F9211240BB60F922F9344
:100BA0003F934F935F936F937F938F939F93AF93F5
:100BB000BF93EF93FF931FDDFF91EF91BF91AF9133
:100BC0009F918F917F916F915F914F913F912F9165
:100BD0000F900BBE0F900FBE0F901F901895F894BA
:020BE000FFCF45
:00000001FF
